:020000040800F2
:100000009804002049010008650200085D0200080C
:100010006102000857020008DD020008000000002D
:100020000000000000000000000000009302000833
:100030005B02000800000000910200089502000821
:100040006301000863010008630100086301000800
:1000500063010008630100086301000863010008F0
:1000600063010008630100086301000863010008E0
:1000700063010008630100086301000863010008D0
:1000800063010008630100086301000863010008C0
:1000900063010008630100086301000863010008B0
:1000A00063010008630100086301000863010008A0
:1000B0006301000863010008630100086301000890
:1000C0006301000863010008630100086301000880
:1000D0006301000863010008630100086301000870
:1000E0006301000863010008630100086301000860
:1000F0006301000863010008630100086301000850
:10010000630100086301000863010008630100083F
:10011000630100086301000863010008630100082F
:10012000630100086301000863010008630100081F
:10013000DFF810D000F05EF800480047BD0E000860
:10014000AFF3008098040020064880470648004727
:10015000FEE7FEE7FEE7FEE7FEE7FEE7FEE7FEE777
:10016000FEE7FEE79D0200083101000840EA0103B6
:100170009B0703D009E008C9121F08C0042AFAD25D
:1001800003E011F8013B00F8013B521EF9D2704721
:100190002DE9F05F0546002092469B4688460646BC
:1001A000814640241BE0284641464746224600F04F
:1001B00042F853465A46C01A914110D31146184688
:1001C000224600F029F82D1A67EB01084F46224617
:1001D0000120002100F020F817EB00094E41201EFD
:1001E000A4F10104DFDC484631462A464346BDE817
:1001F000F09F0000064C074D06E0E06840F0010368
:1002000094E8070098471034AC42F6D3FFF794FF08
:10021000A0180008C0180008202A04DB203A00FAC1
:1002200002F1002070479140C2F1200320FA03F34D
:10023000194390407047202A04DB203A21FA02F04B
:100240000021704721FA02F3D040C2F12002914010
:1002500008431946704700BFFEE7704700BFFEE73E
:1002600000BFFEE77047000010B5002807DA0A0754
:10027000140E054A00F00F031B1FD45403E00A07B5
:10028000130E024A135410BD18ED00E000E400E024
:100290007047704710B500F0FBFB10BD10B50D485E
:1002A000006840F001000B49086000204860C86207
:1002B0000846006808490840064908604FF41F00D6
:1002C00088600846006820F48020086000F0FAFF8B
:1002D00010BD000000100240FFFFF6FE00BFFEE769
:1002E0000FB4054B10B503A9044A029800F018F8A2
:1002F00010BC5DF814FB0000350D000890000020D4
:1003000002E008C8121F08C1002AFAD170477047DE
:10031000002001E001C1121F002AFBD1704700003C
:100320002DE9FF4F8DB00F460546002606E0252833
:100330000BD0DDE90F1290476D1C761C2878002841
:10034000F5D111B03046BDE8F08F0024A246A14699
:100350000122E94900E0044315F8013F203B02FA7D
:1003600003F00842F7D128782A2810D06FF02F0226
:100370002878A0F13001092914D80AEB8A0102EB90
:10038000410144F0020400EB010A6D1CF0E701CFCB
:100390005FEA000A03D544F40054CAF1000A44F0AD
:1003A00002046D1C28782E2817D115F8010F44F08F
:1003B00004042A280ED06FF02F022878A0F1300113
:1003C00009290AD809EB890102EB410100EB010977
:1003D0006D1CF2E757F8049B6D1C28786C280FD031
:1003E00006DC4C2817D068280DD06A2814D104E008
:1003F000742810D07A280FD10DE044F400140AE0DC
:1004000044F4801401E044F440146978814202D13C
:1004100004F580146D1C6D1C28786E281ED00CDC31
:10042000632830D004DC00288BD0582811D19FE0FD
:10043000642867D069280CD164E073282DD004DCCF
:100440006F2872D0702804D194E075286ED0782877
:100450006DD0DDE90F129047761C4BE1C4F30250DA
:10046000022806D0032809D0042801CF09D006604D
:1004700040E101CFF117C0E900613BE101CF068007
:1004800038E1067036E117F8040B8DF80000002003
:100490008DF80100EB46012003E057F804BB4FF054
:1004A000FF3061074FF0000102D40DE008F10101B7
:1004B000884649450FDA8045F8DB1BF8081000290B
:1004C000F4D108E008F1010188468142FADB1BF80B
:1004D00008100029F6D1DDE90F23AAEB08008146B8
:1004E000214600F031F9304400EB080604E0DDE974
:1004F0000F121BF8010B9047B8F10108F7D2214603
:100500004846F2E00A21C4F302524FF0000B089172
:10051000022A04D001CFC117032A09D00AE0FF1D27
:1005200027F00707F7E8020108E02CE01EE01FE0D3
:1005300000B2C117042A01D140B2C117021E71F1E5
:10054000000206DA0023D0EB030063EB01012D2249
:1005500002E0220504D52B228DF82420012203E09D
:10056000E20701D02022F7E7904653E00A210BE092
:10057000102109E010214FF0000B44F004044FF06B
:100580000809089103E008214FF0000B0891C4F31B
:100590000252022A04D001CF0021032A06D006E02D
:1005A000FF1D27F00707F7E8020103E080B2042AE5
:1005B00000D1C0B24FF0000822072BD52A78702A4C
:1005C00007D0DDF820C08CF0100C5CEA0B0C05D0D5
:1005D0000EE040228DF82420012208E050EA0103B9
:1005E00006D030238DF824308DF825200222904645
:1005F000089B83F0080353EA0B030BD150EA010276
:1006000001D1620706D530228DF824204FF0010871
:10061000A9F101092A78582A04D038A20B9208AA15
:100620000A920BE03AA2F9E75B46089AFFF7B0FDA1
:100630000B9B9B5C0A9A521E0A92137050EA0102AD
:10064000F2D10A98ADEB000000F1200B600702D553
:1006500024F4803401E04FF00109D94502DDA9EB13
:100660000B0000E0002000EB0B0141440890AAEBD6
:10067000010AE00306D4DDE90F232146504600F0CD
:1006800063F806444FF0000908E009A911F80900D1
:10069000DDE90F12904709F10109761CC145F4DB31
:1006A000E0030CD5DDE90F232146504600F04CF85D
:1006B000064404E0DDE90F1230209047761C0899CB
:1006C000481E08900029F5DC08E00A980A9900788D
:1006D000491C0A91DDE90F129047761CBBF100011D
:1006E000ABF1010BF1DC21465046DDE90F2300F0B0
:1006F00019F806446D1C21E6092801003031323317
:10070000343536373839616263646566000000004D
:100710003031323334353637383941424344454637
:10072000000000002DE9F041044600251E46174652
:10073000880404D405E039462020B0476D1C641EAF
:10074000F9D52846BDE8F0812DE9F04104460025A1
:100750001E469046C80301D5302700E020278804B4
:1007600004D505E041463846B0476D1C641EF9D5F6
:100770002846BDE8F081816841F00801816000BF32
:10078000816801F008010029FAD1816841F0040173
:10079000816000BF816801F004010029FAD170472F
:1007A00030B5012902D002291AD10CE0C36A23F422
:1007B0007003C362C36A541E4FF4700505EA045403
:1007C0002343C3620DE0836B23F440138363836B85
:1007D000541E4FF4401505EA04542343836300E09C
:1007E00000BF00BF30BD000010B50122110230482B
:1007F00000F016F9012211022E4800F011F9002232
:1008000001212B4800F090F84FF460220121294883
:1008100000F08AF80021264800F04EF80021254813
:1008200000F04AF84FF4E02000F096F8022201218F
:100830001F48FFF7B5FF022201211E48FFF7B0FF56
:1008400007230D2200211A4800F094F807230F22F5
:100850000121174800F08EF807230F2200211548C8
:1008600000F088F807230D220121124800F082F8D9
:10087000012211460E4800F038F8012211460D48B9
:1008800000F033F80A4800F027F8012000F0F6F8ED
:100890000748FFF770FF074800F01EF8012000F03E
:1008A000EDF80448FFF767FF014800F010F810BDAD
:1008B000002401400028014021B1826842F4006216
:1008C000826003E0826822F400628260704781687F
:1008D00041F4807181607047816801F0010119B9AC
:1008E000816841F001018160704772B101F001033C
:1008F0001BB1836843F48013836001F0020393B15A
:10090000836843F4004383600DE001F001031BB1F1
:10091000836823F48013836001F002031BB18368B2
:1009200023F4004383607047012902D0022910D1CB
:1009300007E0836823F46023836083681343836044
:1009400008E0836823F4E043836083681343836093
:1009500000E000BF00BF70470549096821F470211D
:10096000034A116011460968014311607047000095
:1009700004240140F0B51D4606290CD2436B01EB5F
:1009800081071F26BE40B34301EB810602FA06F63B
:100990003343436322E00C290ED2036B8E1F06EB18
:1009A00086071F26BE40B3438E1F06EB860602FA5B
:1009B00006F63343036311E010290FD2C36AA1F195
:1009C0000C0606EB86071F26BE40B343A1F10C06BA
:1009D00006EB860602FA06F63343C3620A2A0CD2F5
:1009E000046902EB42070726BE40B44302EB42060D
:1009F00005FA06F63443046111E0122A0FD2C468E6
:100A0000A2F10A0606EB46070726BE40B443A2F150
:100A10000A0606EB460605FA06F63443C460F0BD46
:100A2000AAB101F480731BB1436843F4807343603F
:100A300001F480631BB1436843F48063436001F0B9
:100A40000203CBB1836843F00203836014E001F436
:100A500080731BB1436823F48073436001F48063A7
:100A60001BB1436823F48063436001F002031BB1B0
:100A7000836823F002038360704700000349086025
:100A800000BF024909680029FBD170470800002017
:100A90000448006820B103480068401E014908600E
:100AA000704700000800002070B505460C4621463E
:100AB000284600F033F908B900BFFEE704EB8400D4
:100AC000810005F10800405840F0010104EB84006A
:100AD000820005F10800815070BD70B505460C46D6
:100AE0002146284600F01AF908B900BFFEE704EBDA
:100AF0008400810005F10800405840F0200104EB1B
:100B00008400820005F10800815070BD00B58DB0F1
:100B10000021164800F030F81548069000208DF8A6
:100B200030001448089001208DF8310040020790F1
:100B30008000099000208DF8320002200A90000306
:100B40000B90142208A96846FFF710FB0021074804
:100B5000DDE9062300F048F800210448FFF7BDFF57
:100B600000210248FFF7A0FF0DB000BD00000240C9
:100B70004C2401400000002070B504460D46294673
:100B8000204600F0CBF808B900BFFEE705EB850072
:100B9000810004F10800405820F0010105EB8500B8
:100BA000820004F108008150002105EB85008200DD
:100BB00004F10800815005EB8500820004F10C006F
:100BC000815005EB8500820004F11000815005EB97
:100BD0008500820004F1140081506068AA000F2192
:100BE00091400843606070BD0FB470B504460D4677
:100BF0002946204600F092F808B900BFFEE705EB51
:100C00008500820004F110000699815005EB8500F3
:100C1000820004F11400089981500A9881B205EB12
:100C20008500820004F10C00815005EB85008100F5
:100C300004F10800465826F47C56099907980843A1
:100C40000B990843064305EB8500810004F1080079
:100C500046509DF8300001280ED105EB850081003B
:100C600004F10800405840F0400105EB8500820087
:100C700004F1080081500DE005EB8500810004F1CE
:100C80000800405820F0400105EB8500820004F187
:100C9000080081509DF8310001280ED105EB850038
:100CA000810004F10800405840F0800105EB850008
:100CB000820004F1080081500DE005EB8500810001
:100CC00004F10800405820F0800105EB8500820007
:100CD00004F1080081509DF8320070B905EB8500E1
:100CE000810004F10800405820F0100105EB850058
:100CF000820004F1080081500DE005EB85008100C1
:100D000004F10800405840F0100105EB8500820016
:100D100004F10800815070BC5DF814FB024601200C
:100D2000034B9A4202D1042900DD002070470000E5
:100D30000004024070B504460D46E1B2054800F0DB
:100D40003FFD00BF0721034800F08BFD0028F9D0CC
:100D5000204670BD0038014070B5054600241D488E
:100D6000854200D103E01C48854200D101241B4983
:100D700031F8140000F0EEF9194931F8140000F0D0
:100D8000E9F9184951F82430174951F82400032291
:100D9000182100F041F8154951F82430124951F852
:100DA00024000322042100F037F8284600F00CFD4F
:100DB0004FF4E131284600F0B9FC0421284600F048
:100DC0005FFD0821284600F063FD284600F044FD41
:100DD00070BD000000380140004400404C0000207D
:100DE0003000002034000020440000203C0000209F
:100DF00010B5282304220021054800F00DF84FF417
:100E0000807303221821034800F006F810BD00008B
:100E10000010014000080140F0B50C4616460025C0
:100E2000002204F00F0504F0100747B1042E05D18D
:100E300045F00305C76B1F43C76300E0354300213E
:100E400018E001278F401F4097B102684FEA810CDC
:100E50000F2707FA0CF7BA438F0005FA07F73A4352
:100E6000282C01D1436102E0482C00D103610260CB
:100E70004F1CB9B20829E4D308211CE001278F4098
:100E80001F40B7B14268A1F108074FEA870C0F274E
:100E900007FA0CF7BA43A1F10807BF0005FA07F7F4
:100EA0003A43282C01D1436102E0482C00D1036170
:100EB00042604F1CB9B21029E0D3F0BD00F02CF90C
:100EC00000F004FAFFF794FF00F092FBFFF71EFE1C
:100ED000FFF78AFC0A48FFF73FFF10E04FF4FA6083
:100EE000FFF7CCFD0748016807A0FFF7F9F90548AF
:100EF00041680EA0FFF7F4F915A0FFF7F1F9EDE74F
:100F0000003801400000002020746865206461748E
:100F100061206164635F76616C75655B305D20693B
:100F2000732025303858200D0A00000020746865B1
:100F30002064617461206164635F76616C75655BD8
:100F4000315D2069732025303858200D0A000000DB
:100F50000D0A0000184B5968184B1940164BDA6AF5
:100F600022F000520C2820D2DFE800F00607080922
:100F70001F0C1F0D1516171800BF00BF00BF41EA58
:100F8000803113E000BF20F004004FF0805343EAAB
:100F9000803319430AE000BF00BF00BF20F00C00FF
:100FA00041EA803142F0005200E000BF00BF024B36
:100FB0005960DA627047000000100240FF3FFFEF07
:100FC0002DE9F04F8CB0074600200A904AA090E827
:100FD000004CC068CDE905BECDF810A007900FF217
:100FE0001C1ADAE9000ACDE9020A0FF2101ADAE94E
:100FF000000ACDE9000A44484068C0F381000B9024
:101000000B9820B1012804D002283FD103E03F4AC9
:101010003EE03E4A3CE03C48406800F4803CBCF581
:10102000803F12D13848C06A00F08048B8F1000F04
:1010300001D1364C00E0364C3348406800F40039AA
:10104000B9F5003F02D1334C00E0324C2E484068E5
:10105000C0F383412C48406800F0006008B141F0C3
:1010600010012948406800F0804008B141F020019B
:101070000F2901D2891C06E00F2903D33E2901D88C
:10108000491C00E03F2104FB01F201E01F4A00BFC0
:1010900000BF1D484068C0F3031504A8465D22FA4E
:1010A00006F319484068C0F3022502A8465D23FAFA
:1010B00006F0099014484068C0F3C2251DF8056089
:1010C00023FA06F0089037B1012F06D0022F06D080
:1010D000032F0AD106E00A9208E00A9306E0099875
:1010E0000A9003E008980A9000E000BF00BF0A9849
:1010F0000CB0BDE8F08F0000000000000000000010
:1011000001020304060708090010024000127A00D9
:10111000006CDC0200093D0010B540F2046000F0F4
:1011200019F840F2026000F015F84FF4A06000F0EA
:1011300011F840F20B6000F00DF840F2096000F089
:1011400009F840F20A6000F005F80220FFF702FFFC
:1011500010BD0000064A02EB9011096800F01F0361
:1011600001229A401143024B03EB90121160704729
:1011700000100240064A02EB9011096800F01F03BC
:1011800001229A409143024B03EB90121160704789
:1011900000100240064A02EB9011096800F01F039C
:1011A00001229A401143024B03EB901211607047E9
:1011B00000100240002000213E4A126842F48032B2
:1011C0003C4B1A6000BF401C3A4A126802F40031DE
:1011D00011B9B0F5006FF6D1364A126802F4003248
:1011E0000AB900BFFEE7334AD26942F08052314B60
:1011F000DA61314A126842F440422F4B1A602D4A9C
:1012000052682C4B5A601A4652685A601A46526805
:1012100042F480625A601A46526822F440325A60A0
:101220001A46526842F440325A601A465268234BBA
:101230001A40204B5A601A465268214B1A431D4BE4
:101240005A601A46126842F080721A6000BF194A4A
:10125000126802F00072002AF9D0174A126842F4AC
:101260008032154B1A6000BF134A526802F4803274
:10127000002AF9D0104A126842F400320E4B1A606C
:1012800000BF0D4A526802F40032002AF9D0094A20
:10129000526822F00302074B5A601A46526842F025
:1012A00002025A6000BF034A526802F00802002A94
:1012B000F9D070470010024000700040FFFFC3B734
:1012C0000000340810B5FFF775FF10BD10B51248C7
:1012D00000684FF47A71B0FBF1F4601EB0F1807FCA
:1012E00001D301200FE0601E4FF0E02148610F2183
:1012F0004FF0FF30FEF7B8FF00204FF0E02188618B
:1013000007200861002008B100BFFEE70021481E49
:10131000FEF7AAFF10BD00000C000020016841F09C
:10132000800101607047000010B531B101293FD044
:1013300002297DD003297CD1BFE0036A23F0010399
:101340000362036A146823430362036A23F00203FF
:101350000362036AD488234303626C4B984202D031
:101360006B4B98421FD1036A23F004030362036AA4
:10137000948823430362036A23F008030362036A29
:10138000148923430362436823F4807343604368F2
:10139000548923434360436823F4007343604368E4
:1013A000948923434360836923F003038361ABE0A3
:1013B000036A23F010030362036A146843EA041308
:1013C0000362036A23F020030362036AD48843EABA
:1013D000041303624D4B984202D04D4B984223D1E7
:1013E000036A23F040030362036A948843EA041308
:1013F0000362036A23F080030362036A148943EAE9
:1014000004130362436823F4806343604368548990
:1014100043EA84034360436823F400634360436802
:10142000948943EA84034360836923F4407301E0B1
:1014300002E068E0836167E0036A23F4807303627B
:10144000036A146843EA04230362036A23F4007303
:101450000362036AD48843EA042303622B4B984255
:1014600002D02B4B984223D1036A23F4806303629A
:10147000036A948843EA04230362036A23F4006343
:101480000362036A148943EA04230362436823F472
:10149000805343604368548943EA041343604368BC
:1014A00023F4005343604368948943EA0413436080
:1014B000C36923F00303C36126E0036A23F4805366
:1014C0000362036A146843EA04330362036A23F481
:1014D00000530362036AD48843EA043303620B4B6C
:1014E000984202D00A4B984208D1436823F48043C3
:1014F00043604368548943EA84134360C36923F417
:101500004073C36100E000BF00BF10BD002C01406C
:101510000034014031B101290CD0022913D0032934
:1015200022D118E0836923F0700383618369134338
:1015300083611AE0836923F4E0438361836943EAAA
:101540000223836111E0C36923F07003C361C3699F
:101550001343C36109E0C36923F4E043C361C36972
:1015600043EA0223C36100E000BF00BF704731B10E
:10157000012906D0022906D0032908D105E04263DB
:1015800006E0826304E0C26302E0026400E000BFA0
:1015900000BF704731B101290CD0022913D00329B3
:1015A00022D118E0836923F0080383618369134320
:1015B00083611AE0836923F400638361836943EAEA
:1015C0000223836111E0C36923F00803C361C36987
:1015D0001343C36109E0C36923F40063C361C369B2
:1015E00043EA0223C36100E000BF00BF7047000070
:1015F00000B589B042F2CF00ADF804000020ADF88C
:101600000600ADF8080042F20F7003900020ADF81C
:1016100010008DF8120001A9144800F02FF80020E6
:10162000ADF81A000120059005AA00210F48FFF728
:101630007BFE40F69F7200210C48FFF798FF602266
:1016400000210A48FFF766FF002211460748FFF70E
:10165000A1FF0121054800F05DF80448FFF75EFE98
:10166000024800F005F809B000BD0000002C014060
:10167000016841F001010160704700000A88826240
:101680001D4A90420ED0B0F1804F0BD01B4A9042C1
:1016900008D01B4A904205D01A4A904202D01A4AFA
:1016A00090420BD1026822F07002026002684B88FF
:1016B0001A43026002688B881A4302608A68C26219
:1016C000124A90420AD0124A904207D0026822F48D
:1016D0004072026002688B891A430260064A904297
:1016E00002D0094A904201D18A7B0263426942F0EA
:1016F0000102426170470000002C014000040040DC
:1017000000080040000C0040003401400010004080
:1017100000140040012904D1426C42F400424264AA
:1017200003E0426C22F40042426470472DE9F04726
:1017300004460D460027B946B84600261E49601AE1
:101740008C421CD006DC1D48204470B1B0F5806F7F
:101750001FD10FE0B0F5806F16D0B0F56C4F18D1E7
:101760000320FFF72DFC074614E00220FFF728FCBA
:1017700007460FE00220FFF723FC07460AE002209D
:10178000FFF71EFC074605E00220FFF719FC07469D
:1017900000E000BF00BF07EB5500B0FBF5F64FF6C9
:1017A000F07006EA000906F00F08A16849EA08008F
:1017B0000143A160BDE8F087004C004000BCFFBFC2
:1017C000C1F308024260704710B504462049601A10
:1017D0008C4228D006DC1F48204490B1B0F5806FC1
:1017E00033D117E0B0F5806F26D0B0F56C4F2CD117
:1017F00040F20E30FFF7CEFC40F20E30FFF7BAFC9D
:1018000024E040F21140FFF7C5FC40F21140FFF721
:10181000B1FC1BE040F21240FFF7BCFC40F212406A
:10182000FFF7A8FC12E040F21340FFF7B3FC40F2D0
:101830001340FFF79FFC09E040F21440FFF7AAFCB9
:1018400040F21440FFF796FC00E000BF00BF10BD5F
:10185000004C004000BCFFBFC16841F40051C160B2
:10186000704710B5024602EB9110006801F01F04AA
:101870000123A340184008B1012010BD0020FCE75F
:101880000A460021C16821F004011143C16070477C
:101890000A460021C16821F008011143C160704768
:1018A000C018000800000020940000000003000899
:1018B00054190008940000200404000010030008DC
:1018C000000000000000000000000000000E2707DC
:1018D00000100140001001400018014000180140B4
:1018E00001000000040000000100000002000000F0
:1018F0000E061107000200000400000000040000B2
:10190000080000000008014000080140020602062D
:101910000406040606060606000801400010014001
:10192000000C014001000000002000000040000009
:10193000020604060306000001000000002000006B
:1019400000400000000201000D0E062828000000E3
:041950000000000093
:0400000508000131BD
:00000001FF
