:020000040800F2
:1000000088040020490100089F01000897010008AA
:100010009B01000891010008150200080000000083
:10002000000000000000000000000000CB010008FC
:100030009501000800000000C9010008CD0100087A
:100040006301000863010008630100086301000800
:1000500063010008630100086301000863010008F0
:1000600063010008630100086301000863010008E0
:1000700063010008630100086301000863010008D0
:1000800063010008630100086301000863010008C0
:1000900063010008630100086301000863010008B0
:1000A00063010008630100086301000863010008A0
:1000B0006301000863010008630100086301000890
:1000C0006301000863010008630100086301000880
:1000D0006301000863010008630100086301000870
:1000E0006301000863010008630100086301000860
:1000F0006301000863010008630100086301000850
:10010000630100086301000863010008630100083F
:10011000630100086301000863010008630100082F
:10012000630100086301000863010008630100081F
:10013000DFF810D000F01AF80048004779030008F3
:10014000AFF3008088040020064880470648004737
:10015000FEE7FEE7FEE7FEE7FEE7FEE7FEE7FEE777
:10016000FEE7FEE7D501000831010008064C074D07
:1001700006E0E06840F0010394E807009847103477
:10018000AC42F6D3FFF7D8FF580500087805000801
:1001900000BFFEE7704700BFFEE700BFFEE7704705
:1001A00010B5002807DA0A07140E054A00F00F03FD
:1001B0001B1FD45403E00A07130E024A135410BD48
:1001C00018ED00E000E400E07047704710B500F063
:1001D0003DF810BD10B50D48006840F001000B4916
:1001E000086000204860C862084600680849084066
:1001F000064908604FF41F0088600846006820F434
:100200008020086000F07CF910BD00000010024062
:10021000FFFFF6FE00BFFEE702E008C8121F08C19C
:10022000002AFAD170477047002001E001C1121F77
:10023000002AFBD1704700000349086000BF024953
:1002400009680029FBD170470000002004480068BD
:1002500020B103480068401E014908607047000053
:100260000000002010B504460B4931F8140000F0DE
:10027000AFF80A4951F82430094951F82400032203
:10028000102100F027F8054850F82400044951F8DF
:100290002410486110BD0000480000201800002014
:1002A00008000020034951F82010034A52F820208A
:1002B000516170471800002008000020034951F8E0
:1002C0002010034A52F820201161704718000020C6
:1002D00008000020F0B50C4616460025002204F068
:1002E0000F0504F0100747B1042E05D145F00305B2
:1002F000C76B1F43C76300E03543002118E00127A7
:100300008F401F4097B102684FEA810C0F2707FA10
:100310000CF7BA438F0005FA07F73A43282C01D1AE
:10032000436102E0482C00D1036102604F1CB9B266
:100330000829E4D308211CE001278F401F40B7B1F2
:100340004268A1F108074FEA870C0F2707FA0CF75C
:10035000BA43A1F10807BF0005FA07F73A43282C72
:1003600001D1436102E0482C00D1036142604F1C7F
:10037000B9B21029E0D3F0BD0020FFF773FF0120D0
:10038000FFF770FF0220FFF76DFF00F0BDF81DE0E2
:100390000020FFF793FFC820FFF74EFF0120FFF773
:1003A0008DFFC820FFF748FF0220FFF787FFC82016
:1003B000FFF742FF0020FFF775FF0120FFF772FFF4
:1003C0000220FFF76FFFC820FFF736FFE0E70000CD
:1003D000064A02EB9011096800F01F0301229A40BF
:1003E0001143024B03EB9012116070470010024062
:1003F000002000213E4A126842F480323C4B1A60D1
:1004000000BF401C3A4A126802F4003111B9B0F53D
:10041000006FF6D1364A126802F400320AB900BF02
:10042000FEE7334AD26942F08052314BDA61314AF9
:10043000126842F440422F4B1A602D4A52682C4BEE
:100440005A601A4652685A601A46526842F48062EC
:100450005A601A46526822F440325A601A4652686C
:1004600042F440325A601A465268234B1A40204BDD
:100470005A601A465268214B1A431D4B5A601A465D
:10048000126842F080721A6000BF194A126802F0C6
:100490000072002AF9D0174A126842F48032154BD4
:1004A0001A6000BF134A526802F48032002AF9D061
:1004B000104A126842F400320E4B1A6000BF0D4A17
:1004C000526802F40032002AF9D0094A526822F038
:1004D0000302074B5A601A46526842F002025A6001
:1004E00000BF034A526802F00802002AF9D07047A0
:1004F0000010024000700040FFFFC3B70000340846
:1005000010B5FFF775FF10BD10B5124800684FF425
:100510007A71B0FBF1F4601EB0F1807F01D301204D
:100520000FE0601E4FF0E02148610F214FF0FF30D7
:10053000FFF736FE00204FF0E021886107200861B8
:10054000002008B100BFFEE70021481EFFF728FE8B
:1005500010BD000004000020780500080000002005
:10056000880000001802000800060008880000202B
:10057000000400002802000800000000000E270709
:100580000010014000100140001801400018014017
:100590000100000004000000010000000200000053
:1005A0000E06110700020000040000000004000015
:1005B0000800000000080140000801400206020691
:1005C0000406040606060606000801400010014065
:1005D000000C01400100000000200000004000006D
:1005E00002060406030600000100000000200000CF
:1005F00000400000000201000D0E06282800000047
:0400000508000131BD
:00000001FF
