:020000040800F2
:100000009806002049010008F5010008ED010008EC
:10001000F1010008E70100080503000800000000E6
:1000200000000000000000000000000023020008A3
:10003000EB01000800000000210200082502000872
:100040006301000863010008630100086301000800
:1000500063010008630100086301000863010008F0
:1000600063010008630100086301000863010008E0
:1000700063010008630100086301000863010008D0
:1000800063010008630100086301000863010008C0
:1000900063010008630100086301000863010008B0
:1000A00063010008630100086301000863010008A0
:1000B0006301000863010008630100086301000890
:1000C0006301000863010008630100086301000880
:1000D000630100086D020008630100086301000865
:1000E0006301000863010008630100086301000860
:1000F0006301000863010008630100086301000850
:10010000630100086301000863010008630100083F
:10011000630100086301000863010008630100082F
:10012000630100086301000863010008630100081F
:10013000DFF810D000F01AF8004800476D050008FD
:10014000AFF3008098060020064880470648004725
:10015000FEE7FEE7FEE7FEE7FEE7FEE7FEE7FEE777
:10016000FEE7FEE72D02000831010008064C074DAE
:1001700006E0E06840F0010394E807009847103477
:10018000AC42F6D3FFF7D8FF040C0008240C00089B
:1001900070B58C1810F8015B15F0070301D110F849
:1001A000013B2A1106D110F8012B03E010F8016B76
:1001B00001F8016B5B1EF9D12B0705D40023521EF9
:1001C0000DD401F8013BFAE710F8013BCB1A921C61
:1001D00003E013F8015B01F8015B521EF9D5A1425F
:1001E000D8D3002070BD00BFFEE7704700BFFEE718
:1001F00000BFFEE77047000010B5002807DA0A07C5
:10020000140E054A00F00F031B1FD45403E00A0725
:10021000130E024A135410BD18ED00E000E400E094
:100220007047704710B500F089F810BD10B50D4843
:10023000006840F001000B49086000204860C86277
:100240000846006808490840064908604FF41F0046
:1002500088600846006820F48020086000F0BEFB3B
:1002600010BD000000100240FFFFF6FE10B51C4953
:100270001C4800F09AFCB0B11A4800F025FCC1B24D
:10028000194802880088401C174B18801748815471
:100290001846008816490968884204D340F205319F
:1002A000104800F068FC13490E4800F07EFCA8B12D
:1002B000114802880088401C0F4B18800F48815C51
:1002C000084800F006FC0C4800880D49096888427F
:1002D00004D340F20731034800F04DFC10BD00008C
:1002E00005030500003801400201002098010020AC
:1002F0000401002007030700000100200000002087
:100300000801002000BFFEE702E008C8121F08C174
:10031000002AFAD170477047002001E001C1121F86
:10032000002AFBD1704700000349086000BF024962
:1003300009680029FBD170471001002004480068BB
:1003400020B103480068401E014908607047000062
:100350001001002070B5054600241D48854200D1DB
:1003600003E01C48854200D101241B4931F81400E8
:1003700000F07CFA194931F8140000F077FA1849B6
:1003800051F82430174951F824000322182100F0B5
:1003900065F8154951F82430124951F82400032218
:1003A000042100F05BF8284600F098FB4FF4E1319F
:1003B000284600F03FFB0421284600F012FC0821EB
:1003C000284600F016FC284600F0D0FB70BD000067
:1003D0000038014000440040540100203801002052
:1003E0003C0100204C0100204401002010B50446CF
:1003F0000B4931F8140000F039FA0A4951F8243059
:10040000094951F824000322102100F027F805487B
:1004100050F82400044951F82410486110BD000030
:10042000580100202801002018010020034951F83C
:100430002010034A52F82020516170472801002003
:1004400018010020034951F82010034A52F82020D7
:10045000116170472801002018010020F0B50C46FA
:1004600016460025002204F00F0504F0100747B1DE
:10047000042E05D145F00305C76B1F43C76300E099
:100480003543002118E001278F401F4097B10268D3
:100490004FEA810C0F2707FA0CF7BA438F0005FAD1
:1004A00007F73A43282C01D1436102E0482C00D1E0
:1004B000036102604F1CB9B20829E4D308211CE093
:1004C00001278F401F40B7B14268A1F108074FEAEA
:1004D000870C0F2707FA0CF7BA43A1F10807BF00F2
:1004E00005FA07F73A43282C01D1436102E0482C72
:1004F00000D1036142604F1CB9B21029E0D3F0BDB6
:1005000070B50446002520E04FF4C870FFF70CFFDB
:100510000020FFF797FF0120FFF794FF0220FFF76D
:1005200091FF0320FFF78EFF4FF4C870FFF7FCFE2A
:100530000020FFF77BFF0120FFF778FF0220FFF785
:1005400075FF0320FFF772FF6D1CA542DCDB70BD59
:1005500010B50020FFF74AFF0120FFF747FF0220F8
:10056000FFF744FF0320FFF741FF10BDFFF7F0FF47
:1005700000F038FA00221146252000F079F8012019
:10058000FFF7BEFF2948FFF7E5FE40F20531274897
:1005900000F0FEFA40F20731244800F0F9FA00BFFB
:1005A00023480088234909688842F9D300BF2248BC
:1005B0000088224909688842F9D34FF480722049A3
:1005C000204800F043F8204908702EE01E480078CB
:1005D000012827D10020FFF735FFC820FFF7A4FE30
:1005E0000120FFF72FFFC820FFF79EFE0220FFF734
:1005F00029FFC820FFF798FE0320FFF723FFC8203C
:10060000FFF792FE0020FFF711FF0120FFF70EFF1A
:100610000220FFF70BFF0320FFF708FFC820FFF7BA
:1006200083FE02E00120FFF76BFFCFE700380140B7
:100630000001002008010020020100200401002028
:1006400098010020000000200C01002030B5034676
:1006500007E013F8014B11F8015BAC4201D0002018
:1006600030BD101EA2F10104A2B2F2D10120F7E7C1
:10067000F0B50B46002100240025244E366806F410
:10068000E066B6F5E06F02D100BF042526E01F4EFC
:10069000366806F4E066B6F5C06F02D10124032582
:1006A0001CE01A4E366806F4E066B6F5A06F02D17B
:1006B0000224022512E0154E366806F4E066B6F50F
:1006C000806F02D10324012508E0104E366806F43D
:1006D000E066B6F5407F01D104240025C4F104068C
:1006E00003FA06F1C5F104070F26FE401640314318
:1006F0000901074E315400F01F070126BE40471183
:10070000BF0007F1E027C7F80061F0BD0CED00E085
:1007100000E400E02DE9F04F8CB0074600200A907D
:100720004AA090E8004CC068CDE905BECDF810A005
:1007300007900FF21C1ADAE9000ACDE9020A0FF25B
:10074000101ADAE9000ACDE9000A44484068C0F30B
:1007500081000B900B9820B1012804D002283FD1D2
:1007600003E03F4A3EE03E4A3CE03C48406800F43B
:10077000803CBCF5803F12D13848C06A00F0804808
:10078000B8F1000F01D1364C00E0364C33484068D8
:1007900000F40039B9F5003F02D1334C00E0324C8F
:1007A0002E484068C0F383412C48406800F0006048
:1007B00008B141F010012948406800F0804008B1BC
:1007C00041F020010F2901D2891C06E00F2903D333
:1007D0003E2901D8491C00E03F2104FB01F201E061
:1007E0001F4A00BF00BF1D484068C0F3031504A89E
:1007F000465D22FA06F319484068C0F3022502A8B4
:10080000465D23FA06F0099014484068C0F3C225FB
:100810001DF8056023FA06F0089037B1012F06D0C5
:10082000022F06D0032F0AD106E00A9208E00A93AD
:1008300006E009980A9003E008980A9000E000BFDB
:1008400000BF0A980CB0BDE8F08F00000000000067
:10085000000000000102030406070809001002401E
:1008600000127A00006CDC0200093D00064A02EB2F
:100870009011096800F01F0301229A401143024BB6
:1008800003EB90121160704700100240064A02EB21
:100890009011096800F01F0301229A409143024B16
:1008A00003EB90121160704700100240064A02EB01
:1008B0009011096800F01F0301229A401143024B76
:1008C00003EB9012116070470010024000200021DD
:1008D0003E4A126842F480323C4B1A6000BF401C12
:1008E0003A4A126802F4003111B9B0F5006FF6D13E
:1008F000364A126802F400320AB900BFFEE7334AF2
:10090000D26942F08052314BDA61314A126842F4C6
:1009100040422F4B1A602D4A52682C4B5A601A469F
:1009200052685A601A46526842F480625A601A4607
:10093000526822F440325A601A46526842F44032F9
:100940005A601A465268234B1A40204B5A601A4686
:100950005268214B1A431D4B5A601A46126842F0E6
:1009600080721A6000BF194A126802F00072002AF1
:10097000F9D0174A126842F48032154B1A6000BF52
:10098000134A526802F48032002AF9D0104A1268E1
:1009900042F400320E4B1A6000BF0D4A526802F456
:1009A0000032002AF9D0094A526822F00302074BAC
:1009B0005A601A46526842F002025A6000BF034A67
:1009C000526802F00802002AF9D070470010024075
:1009D00000700040FFFFC3B70000340810B5FFF7F8
:1009E00075FF10BD10B5124800684FF47A71B0FB66
:1009F000F1F4601EB0F1807F01D301200FE0601E92
:100A00004FF0E02148610F214FF0FF30FFF7F4FB7A
:100A100000204FF0E021886107200861002008B124
:100A200000BFFEE70021481EFFF7E6FB10BD0000F7
:100A3000140100202DE9F04704460D460027B94671
:100A4000B84600261E49601A8C421CD006DC1D48A0
:100A5000204470B1B0F5806F1FD10FE0B0F5806F0A
:100A600016D0B0F56C4F18D10320FFF753FE0746A0
:100A700014E00220FFF74EFE07460FE00220FFF7CA
:100A800049FE07460AE00220FFF744FE074605E05C
:100A90000220FFF73FFE074600E000BF00BF07EB64
:100AA0005500B0FBF5F64FF6F07006EA000906F0C7
:100AB0000F08A16849EA08000143A160BDE8F0877A
:100AC000004C004000BCFFBF01464868C0F308006E
:100AD0007047C1F3080242607047000010B5044639
:100AE0002049601A8C4228D006DC1F48204490B16F
:100AF000B0F5806F33D117E0B0F5806F26D0B0F538
:100B00006C4F2CD140F20E30FFF7D0FE40F20E3089
:100B1000FFF7BCFE24E040F21140FFF7C7FE40F2B1
:100B20001140FFF7B3FE1BE040F21240FFF7BEFE9C
:100B300040F21240FFF7AAFE12E040F21340FFF726
:100B4000B5FE40F21340FFF7A1FE09E040F2144069
:100B5000FFF7ACFE40F21440FFF798FE00E000BF44
:100B600000BF10BD004C004000BCFFBFC16841F495
:100B70000051C160704710B5C1F38912825801F06D
:100B80001F040123A3409A43C1F38913C25010BD2F
:100B900010B5C1F38912825801F01F040123A3404C
:100BA0001A43C1F38913C25010BD70B50246002329
:100BB0000024C1F38910105801F01F060125B5402B
:100BC00000EA050302EB91500068C1F304460125D9
:100BD000B54000EA050414B10BB1012070BD00203E
:100BE000FCE70A460021C16821F004011143C160FD
:100BF00070470A460021C16821F008011143C16015
:100C000070470000240C000800000020980100003C
:100C100090010008780D00089801002000050000F0
:100C2000180300081100FF0001020304050607086D
:100C3000090A0B0C0D0E0F101112131415161718AC
:100C4000191A1B1C1D1E1F2021222324252627289C
:100C5000292A2B2C2D2E2F3031323334353637388C
:100C6000393A3B3C3D3E3F4041424344454647487C
:100C7000494A4B4C4D4E4F5051525354555657586C
:100C8000595A5B5C5D5E5F6061626364656667685C
:100C9000696A6B6C6D6E6F7071727374757677784C
:100CA000797A7B7C7D7E7F8081828384858687883C
:100CB000898A8B8C8D8E8F9091929394959697982C
:100CC000999A9B9C9D9E9FA0A1A2A3A4A5A6A7A81C
:100CD000A9AAABACADAEAFB0B1B2B3B4B5B6B7B80C
:100CE000B9BABBBCBDBEBFC0C1C2C3C4C5C6C7C8FC
:100CF000C9CACBCCCDCECFD0D1D2D3D4D5D6D7D8EC
:100D0000D9DADBDCDDDEDFE0E1E2E3E4E5E6E7E8DB
:100D1000E9EAEBECEDEEEFF0F1F2F3F4F5F6F7F8CB
:100D2000F9FAFBFCFDFE52FF5A010481140E27075D
:100D30003C100140044A1804291F5A04272A0223A0
:100D40002C061107092914290542081A082C190430
:100D50001E0206020604022901391429484A0C44DD
:100D60001132201A404419205B03067759141113DD
:080D70000201360D0E062828D1
:0400000508000131BD
:00000001FF
