:020000040800F2
:100000008804002049010008BB010008B301000872
:10001000B701000891010008090200080000000073
:10002000000000000000000000000000BF01000808
:100030009501000800000000BD010008C101000892
:100040006301000863010008630100086301000800
:1000500063010008630100086301000863010008F0
:1000600063010008630100086301000863010008E0
:1000700063010008630100086301000863010008D0
:1000800063010008630100086301000863010008C0
:1000900063010008630100086301000863010008B0
:1000A00063010008630100086301000863010008A0
:1000B0006301000863010008630100086301000890
:1000C0006301000863010008630100086301000880
:1000D0006301000863010008630100086301000870
:1000E000970100086301000863010008630100082C
:1000F0006301000863010008630100086301000850
:10010000630100086301000863010008630100083F
:10011000630100086301000863010008630100082F
:10012000630100086301000863010008630100081F
:10013000DFF810D000F01AF8004800477D050008ED
:10014000AFF3008088040020064880470648004737
:10015000FEE7FEE7FEE7FEE7FEE7FEE7FEE7FEE777
:10016000FEE7FEE7C901000831010008064C074D13
:1001700006E0E06840F0010394E807009847103477
:10018000AC42F6D3FFF7D8FF6C0700088C070008D5
:1001900000BFFEE7704710B54FF4005000F0B4F810
:1001A00010B1002000F022F94FF4005000F0A6F842
:1001B00010BD00BFFEE700BFFEE770477047704705
:1001C00010B500F033F810BD10B50D48006840F0D0
:1001D00001000B49086000204860C86208460068BA
:1001E00008490840064908604FF41F008860084627
:1001F000006820F48020086000F0B4FA10BD000010
:1002000000100240FFFFF6FE00BFFEE702E008C854
:10021000121F08C1002AFAD170477047002001E080
:1002200001C1121F002AFBD170470000044800687A
:1002300020B103480068401E014908607047000073
:100240000000002010B52C4B1B6883432A4C236010
:10025000231D1B688343241D2360231D1B688343C8
:10026000241D2360231D1B688343241D236011B1BB
:1002700001290ED105E0204B1B6803431E4C23606F
:1002800008E01D4B1B1D1B6803431B4C241D2360F2
:1002900000E000BF00BF22B1012A0FD0022A27D1FF
:1002A00019E0154B08331B680343134C08342360D3
:1002B000231D1B688343241D23601AE00E4B083363
:1002C0001B6883430C4C08342360231D1B680343C5
:1002D000241D23600DE0084B08331B680343064CC4
:1002E00008342360231D1B680343241D236000E0A2
:1002F00000BF00BF10BD00000004014001490860BC
:10030000704700001404014001460748006800EAF5
:10031000010205481438006800EA010312B10BB16C
:10032000012070470020FCE71404014070B504462A
:100330000D46174931F8140000F07CF94FF4C06005
:1003400000F078F9134951F82430134951F824008A
:100350000322042100F0B8F8012D17D10F49085DE0
:100360000022022100F014F90D4A115D0D4A105DC2
:1003700000F05EF80C4951F8240001220021FFF73B
:1003800061FF094951F82400FFF7B8FF70BD000074
:1003900064000020580000204C0000207E00002057
:1003A0007B000020780000206C00002010B504467F
:1003B0000B4931F8140000F03DF90A4951F8243096
:1003C000094951F824000322102100F07DF8054866
:1003D00050F82400044951F82410486110BD000071
:1003E00044000020140000200400002070B50446E2
:1003F0000A4A52F824100A4A52F8240000F0B6F8CB
:10040000C0F10100C5B2054A52F82410044A52F85E
:1004100024002A4600F006F870BD000014000020F9
:10042000040000200AB1016100E041617047000052
:1004300010B500228B071C0F0F2303FA04F20429C6
:100440000EDA204B9B6893431E4CA36023469B68A7
:100450008C07240F00FA04F423431A4CA3602FE006
:1004600008290EDA174BDB689343164CE3602346EA
:10047000DB688C07240F00FA04F42343114CE3607B
:100480001EE00C290EDA0F4B1B6993430D4C2361C0
:1004900023461B698C07240F00FA04F42343094CFC
:1004A00023610DE0074B5B699343064C6361234670
:1004B0005B698C07240F00FA04F42343014C636149
:1004C00010BD000000000140F0B50C4616460025A6
:1004D000002204F00F0504F0100747B1042E05D1E7
:1004E00045F00305C76B1F43C76300E03543002198
:1004F00018E001278F401F4097B102684FEA810C36
:100500000F2707FA0CF7BA438F0005FA07F73A43AB
:10051000282C01D1436102E0482C00D10361026024
:100520004F1CB9B20829E4D308211CE001278F40F1
:100530001F40B7B14268A1F108074FEA870C0F27A7
:1005400007FA0CF7BA43A1F10807BF0005FA07F74D
:100550003A43282C01D1436102E0482C00D10361C9
:1005600042604F1CB9B21029E0D3F0BD024690683A
:10057000084008B1012070470020FCE7012108462F
:10058000FFF7D4FE0020FFF711FF00BFFEE70000D9
:10059000F0B50B46002100240025244E366806F4F1
:1005A000E066B6F5E06F02D100BF042526E01F4EDD
:1005B000366806F4E066B6F5C06F02D10124032563
:1005C0001CE01A4E366806F4E066B6F5A06F02D15C
:1005D0000224022512E0154E366806F4E066B6F5F0
:1005E000806F02D10324012508E0104E366806F41E
:1005F000E066B6F5407F01D104240025C4F104066D
:1006000003FA06F1C5F104070F26FE4016403143F8
:100610000901074E315400F01F070126BE40471163
:10062000BF0007F1E027C7F80061F0BD0CED00E066
:1006300000E400E0064A02EB9011096800F01F0395
:1006400001229A401143024B03EB90121160704754
:1006500000100240002000213E4A126842F480321D
:100660003C4B1A6000BF401C3A4A126802F4003149
:1006700011B9B0F5006FF6D1364A126802F40032B3
:100680000AB900BFFEE7334AD26942F08052314BCB
:10069000DA61314A126842F440422F4B1A602D4A07
:1006A00052682C4B5A601A4652685A601A46526871
:1006B00042F480625A601A46526822F440325A600C
:1006C0001A46526842F440325A601A465268234B26
:1006D0001A40204B5A601A465268214B1A431D4B50
:1006E0005A601A46126842F080721A6000BF194AB6
:1006F000126802F00072002AF9D0174A126842F418
:100700008032154B1A6000BF134A526802F48032DF
:10071000002AF9D0104A126842F400320E4B1A60D7
:1007200000BF0D4A526802F40032002AF9D0094A8B
:10073000526822F00302074B5A601A46526842F090
:1007400002025A6000BF034A526802F00802002AFF
:10075000F9D070470010024000700040FFFFC3B79F
:100760000000340810B5FFF775FF10BD8C070008B6
:1007700000000020840000000C020008100800089F
:1007800084000020040400001C0200080000000097
:100790000010014000100140001801400018014005
:1007A0000100000004000000010000000200000041
:1007B0000E06110700020000040000000004000003
:1007C000080000000008014000080140020602067F
:1007D0000406040606060606000801400010014053
:1007E000000C01400100000000200000004000005B
:1007F00002060406030600000100000000200000BD
:1008000000400000000201000D0E06282800000034
:0400000508000131BD
:00000001FF
