:020000040800F2
:10000000900400204901000841020008390200085C
:100010003D02000833020008B90200080000000099
:100020000000000000000000000000006F02000857
:1000300037020008000000006D020008710200088D
:100040006301000863010008630100086301000800
:1000500063010008630100086301000863010008F0
:1000600063010008630100086301000863010008E0
:1000700063010008630100086301000863010008D0
:1000800063010008630100086301000863010008C0
:1000900063010008630100086301000863010008B0
:1000A00063010008630100086301000863010008A0
:1000B0006301000863010008630100086301000890
:1000C0006301000863010008630100086301000880
:1000D0006301000863010008630100086301000870
:1000E0006301000863010008630100086301000860
:1000F0006301000863010008630100086301000850
:10010000630100086301000863010008630100083F
:10011000630100086301000863010008630100082F
:10012000630100086301000863010008630100081F
:10013000DFF810D000F04CF8004800471911000813
:10014000AFF300809004002006488047064800472F
:10015000FEE7FEE7FEE7FEE7FEE7FEE7FEE7FEE777
:10016000FEE7FEE779020008310100082DE9F05FA3
:100170000546002092469B46884606468146402416
:100180001BE0284641464746224600F042F85346C7
:100190005A46C01A914110D311461846224600F023
:1001A00029F82D1A67EB01084F462246012000214D
:1001B00000F020F817EB00094E41201EA4F10104C5
:1001C000DFDC484631462A464346BDE8F09F000042
:1001D000064C074D06E0E06840F0010394E8070094
:1001E00098471034AC42F6D3FFF7A6FFAC160008D0
:1001F000CC160008202A04DB203A00FA02F1002085
:1002000070479140C2F1200320FA03F31943904054
:100210007047202A04DB203A21FA02F000217047BF
:1002200021FA02F3D040C2F120029140084319465E
:10023000704700BFFEE7704700BFFEE700BFFEE764
:100240007047000010B5002807DA0A07140E054AA7
:1002500000F00F031B1FD45403E00A07130E024AD9
:10026000135410BD18ED00E000E400E07047704743
:1002700010B500F079FA10BD10B50D48006840F0D7
:1002800001000B49086000204860C8620846006809
:1002900008490840064908604FF41F008860084676
:1002A000006820F48020086001F01AF910BD0000F9
:1002B00000100240FFFFF6FE00BFFEE70FB4054B43
:1002C00010B503A9044A029800F018F810BC5DF8B4
:1002D00014FB00002D0B00088C00002002E008C871
:1002E000121F08C1002AFAD170477047002001E0B0
:1002F00001C1121F002AFBD1704700002DE9FF4FFA
:100300008DB00F460546002606E025280BD0DDE916
:100310000F1290476D1C761C28780028F5D111B07B
:100320003046BDE8F08F0024A246A1460122E949EB
:1003300000E0044315F8013F203B02FA03F00842B5
:10034000F7D128782A2810D06FF02F022878A0F152
:100350003001092914D80AEB8A0102EB410144F06B
:10036000020400EB010A6D1CF0E701CF5FEA000A0E
:1003700003D544F40054CAF1000A44F002046D1C91
:1003800028782E2817D115F8010F44F004042A28E4
:100390000ED06FF02F022878A0F1300109290AD879
:1003A00009EB890102EB410100EB01096D1CF2E749
:1003B00057F8049B6D1C28786C280FD006DC4C285D
:1003C00017D068280DD06A2814D104E0742810D002
:1003D0007A280FD10DE044F400140AE044F48014AC
:1003E00001E044F440146978814202D104F580149C
:1003F0006D1C6D1C28786E281ED00CDC632830D054
:1004000004DC00288BD0582811D19FE0642867D0E5
:1004100069280CD164E073282DD004DC6F2872D0D9
:10042000702804D194E075286ED078286DD0DDE96D
:100430000F129047761C4BE1C4F30250022806D0FD
:10044000032809D0042801CF09D0066040E101CF7C
:10045000F117C0E900613BE101CF068038E1067089
:1004600036E117F8040B8DF8000000208DF801002C
:10047000EB46012003E057F804BB4FF0FF30610763
:100480004FF0000102D40DE008F101018846494512
:100490000FDA8045F8DB1BF808100029F4D108E0DA
:1004A00008F1010188468142FADB1BF80810002997
:1004B000F6D1DDE90F23AAEB08008146214600F0C2
:1004C00031F9304400EB080604E0DDE90F121BF8B7
:1004D000010B9047B8F10108F7D221464846F2E0F7
:1004E0000A21C4F302524FF0000B0891022A04D0F3
:1004F00001CFC117032A09D00AE0FF1D27F0070723
:10050000F7E8020108E02CE01EE01FE000B2C1178E
:10051000042A01D140B2C117021E71F1000206DAAD
:100520000023D0EB030063EB01012D2202E0220542
:1005300004D52B228DF82420012203E0E20701D00C
:100540002022F7E7904653E00A210BE0102109E052
:1005500010214FF0000B44F004044FF008090891FB
:1005600003E008214FF0000B0891C4F30252022A65
:1005700004D001CF0021032A06D006E0FF1D27F09A
:100580000707F7E8020103E080B2042A00D1C0B2F5
:100590004FF0000822072BD52A78702A07D0DDF803
:1005A00020C08CF0100C5CEA0B0C05D00EE0402251
:1005B0008DF82420012208E050EA010306D0302300
:1005C0008DF824308DF8252002229046089B83F078
:1005D000080353EA0B030BD150EA010201D1620771
:1005E00006D530228DF824204FF00108A9F1010929
:1005F0002A78582A04D038A20B9208AA0A920BE053
:100600003AA2F9E75B46089AFFF7B0FD0B9B9B5CAB
:100610000A9A521E0A92137050EA0102F2D10A9805
:10062000ADEB000000F1200B600702D524F480340C
:1006300001E04FF00109D94502DDA9EB0B0000E014
:10064000002000EB0B0141440890AAEB010AE003F3
:1006500006D4DDE90F232146504600F063F8064436
:100660004FF0000908E009A911F80900DDE90F12AF
:10067000904709F10109761CC145F4DBE0030CD574
:10068000DDE90F232146504600F04CF8064404E013
:10069000DDE90F1230209047761C0899481E08901B
:1006A0000029F5DC08E00A980A990078491C0A91AB
:1006B000DDE90F129047761CBBF10001ABF1010B95
:1006C000F1DC21465046DDE90F2300F019F806441D
:1006D0006D1C21E6092801003031323334353637BC
:1006E000383961626364656600000000303132337E
:1006F000343536373839414243444546000000001E
:100700002DE9F041044600251E461746880404D40E
:1007100005E039462020B0476D1C641EF9D52846F7
:10072000BDE8F0812DE9F041044600251E469046C3
:10073000C80301D5302700E02027880404D505E050
:1007400041463846B0476D1C641EF9D52846BDE8C1
:10075000F08100000349086000BF024909680029D0
:10076000FBD17047040000200448006820B1034812
:100770000068401E01490860704700000400002026
:1007800070B505460E46144600BF4D494D4800F071
:1007900047FC0028F9D1022C03D10021494800F080
:1007A00065FB484800F06BFC00BF0121454800F0A4
:1007B00037FC0028F9D06FF0010243480188414816
:1007C00000F047FC00BF02213E4800F029FC002851
:1007D000F9D002213B4800F01AFC00BF80213948C3
:1007E00000F01EFC0128F9D1364800F00BFC314620
:1007F000344800F0FDFB00BF0421324800F010FC3B
:100800000028F9D02F4800F03AFC00BF01212D4804
:1008100000F006FC0028F9D001222B480188294865
:1008200000F017FC032C03DA0021264800F012FB2D
:1008300000BF0221234800F0F3FB0028F9D0022179
:10084000204800F0E4FB012C02D11E4800F01CFC03
:1008500024E0032C0AD100BF04211A4800F0E0FB79
:100860000028F9D00021174800F0F4FA022C09D131
:1008700000BF0421134800F0D3FB0028F9D0114831
:1008800000F002FC40210F4800F0CAFB30B10D48D7
:1008900000F0AAFB28706D1C601E84B2002CD8D119
:1008A00000BF0848006800F400700028F9D1012159
:1008B000044800F0CFFA0121024800F0D7FA70BDD9
:1008C00002000080005400408A0000202DE9F0471B
:1008D00007460D4614464FF00009C846C24600269A
:1008E0002846E91705EB5171C910A5EBC10101F0CC
:1008F000FF0ACAF10800C6B22046E11704EB5171A5
:10090000C1F3C709E11704EB5171C910A4EBC10190
:1009100001F0FF08BAF1000F1DD10AE008222946B4
:10092000384600F05DF800F0B7F805F10800C5B2F0
:100930000837B9F10000A9F1010101F0FF09EDD17B
:10094000B8F1000F49D042462946384600F048F831
:1009500000F0A2F841E0B44207DAE2B22946384694
:1009600000F03EF800F098F837E0A01B84B2204673
:10097000E11704EB5171C1F3C709E11704EB5171A1
:10098000C910A4EBC10101F0FF084EB1324629465F
:10099000384600F025F800F07FF8A819C5B23744B2
:1009A0000AE008222946384600F01AF800F074F8E8
:1009B00005F10800C5B20837B9F10000A9F101013D
:1009C00001F0FF09EDD1B8F1000F06D042462946EB
:1009D000384600F005F800F05FF8BDE8F087000049
:1009E00070B504460E46154600BF2849284800F059
:1009F00017FB0028F9D1264800F041FB00BF012178
:100A0000234800F00DFB0028F9D06FF001022148C7
:100A100001881F4800F01DFB00BF02211C4800F0A8
:100A2000FFFA0028F9D00221194800F0F0FA00BFBF
:100A30008021174800F0F4FA0128F9D13146144812
:100A400000F0D6FA00BF0421114800F0E9FA0028AE
:100A5000F9D00BE021780E4800F0CAFA641C00BF00
:100A600004210B4800F0DCFA0028F9D0281EA5F17B
:100A70000101CDB2EED1064800F006FB00BF0448EC
:100A8000006800F400700028F9D170BD02000080F9
:100A9000005400408A00002008B5002000903DE08E
:100AA00000BF1F491F4800F0BBFA0028F9D11D48BC
:100AB00000F0E5FA00BF01211A4800F0B1FA002861
:100AC000F9D06FF0010218480188164800F0C1FA09
:100AD00000BF144814300068009040F202410098B2
:100AE00008400028F5D0009800F0020038B102213B
:100AF0000C4800F08CFA0B4800F0C6FA08BD4FF421
:100B00008061084800F083FA064800F0BDFA00BF93
:100B10000448006800F400700028F9D1C0E7000024
:100B200002000080005400408A00002070B5044696
:100B30000D46E1B2054800F049FD00BF072103481A
:100B400000F095FD0028F9D0204670BD0038014026
:100B500070B5054600241D48854200D103E01C48BD
:100B6000854200D101241B4931F8140000F000FC3B
:100B7000194931F8140000F0FBFB184951F82430F2
:100B8000174951F824000322182100F077F815497D
:100B900051F82430124951F824000322042100F0B6
:100BA0006DF8284600F016FD4FF4E131284600F0BC
:100BB000C3FC0421284600F069FD0821284600F006
:100BC0006DFD284600F04EFD70BD0000003801406C
:100BD00000440040480000202C000020300000208D
:100BE000400000203800002010B504460B4931F8C1
:100BF000140000F0BDFB0A4951F82430094951F8AE
:100C000024000322102100F039F8054850F8240090
:100C1000044951F82410486110BD00004C00002028
:100C20001C0000200C000020034951F82010034A4A
:100C300052F82020516170471C0000200C00002059
:100C4000034951F82010034A52F8202011617047DF
:100C50001C0000200C00002010B540F2036000F0E2
:100C600087FB40F2157000F083FBC02303221C2198
:100C7000014800F003F810BD000C0140F0B50C462F
:100C800016460025002204F00F0504F0100747B1B6
:100C9000042E05D145F00305C76B1F43C76300E071
:100CA0003543002118E001278F401F4097B10268AB
:100CB0004FEA810C0F2707FA0CF7BA438F0005FAA9
:100CC00007F73A43282C01D1436102E0482C00D1B8
:100CD000036102604F1CB9B20829E4D308211CE06B
:100CE00001278F401F40B7B14268A1F108074FEAC2
:100CF000870C0F2707FA0CF7BA43A1F10807BF00CA
:100D000005FA07F73A43282C01D1436102E0482C49
:100D100000D1036142604F1CB9B21029E0D3F0BD8D
:100D200010B5ADF5007D2BA0FFF7C8FA002413E045
:100D300040A90C5540A8015D2CA0FFF7BFFAE117B0
:100D400004EB11710911A4EB01110F2902D126A0A6
:100D5000FFF7B4FA601C84B2FF2CE9DD4FF4807217
:100D6000002140A8FFF7B2FD22A0FFF7A7FA4FF439
:100D7000807200216846FFF703FD002423E01DF880
:100D8000040040A9095D88420BD01DF8041017A08B
:100D9000FFF794FA1DA0FFF791FA01200DF5007DF1
:100DA00010BD1DF8041011A0FFF788FAE11704EB3D
:100DB00011710911A4EB01110F2902D10AA0FFF74B
:100DC0007DFA601C84B2FF2CD9DD1BA0FFF776FAF8
:100DD0000020E3E70D0A4154323443303220777269
:100DE0006974696E672E2E2E0D0A0000307825304A
:100DF00032582000415432344330322072656164ED
:100E0000696E672E2E2E0D0A000000004572723AA0
:100E100064617461207265616420616E6420777220
:100E2000697465206172656E2774206D61746368F2
:100E3000696E672E0A0D00004932432D4154323449
:100E4000433032207465737420706173736564215C
:100E50000A0D0000012904D1026842F48062026098
:100E600003E0026822F480620260704721B90268E0
:100E700042F40062026003E0026822F40062026051
:100E8000704700002DE9F05F04460E4691460220AF
:100E900000F0C2F907464348B7FBF0F8B8F17F0FFE
:100EA00001D34FF07F08D4F804B02BF07F0B4BEA4E
:100EB000080BC4F804B03C48864218D83948B7FB40
:100EC000F0F000F1010ABAF17F0F02D37F20206217
:100ED00001E0C4F820A07000B7FBF0F5042D00D2AB
:100EE0000425E069C5F30B010843E06158E02F4891
:100EF00086422CD84FF4967008FB00F04FF47A71BC
:100F0000B0FBF1F0401C2062B9F1000F08D106EBF4
:100F10004600B7FBF0F5E06920F48040E06109E0AD
:100F200006EBC60000EB0610B7FBF0F5E06940F4F5
:100F30008040E061C5F30B0008B945F00105E069A8
:100F400040F40040E061E0692843E06128E0C8EB3C
:100F50000810C0004FF47A71B0FBF1F0401C206221
:100F6000B9F1000F08D106EB4600B7FBF0F5E069D8
:100F700020F48040E06109E006EBC60000EB0610BB
:100F8000B7FBF0F5E06940F48040E061E06940F4CF
:100F90000040E061E0692843E0610120C4F890006E
:100FA000BDE8F09F40420F00A0860100801A0600B5
:100FB00010B540F2157000F0DBF90022084909482D
:100FC000FFF760FFA02300221146064800F04BF80F
:100FD000044800F017F801210248FFF73BFF10BD5D
:100FE000801A06000054004001460869C0B27047EC
:100FF000CAB2026170470000A02001490880704712
:101000008A000020016841F0010101607047022957
:1010100002D14269826902E042698A4342617047B3
:1010200030B502460023002001F00043B3F1004F29
:1010300007D194698DB22C400CB1012008E000204A
:1010400006E054698DB22C400CB1012000E0002074
:1010500030BD12F1020F02D121F0010101E041F097
:1010600001010161704730B50C460021016821F093
:1010700002012143016042EA0305856030BD016839
:1010800041F4807101607047016841F400710160B2
:10109000704710B50020FFF7A7FD0120FFF7A4FD62
:1010A0000220FFF7A1FD0320FFF79EFD0020FFF7C0
:1010B000BBFD0120FFF7B8FD0220FFF7B5FD0320BF
:1010C000FFF7B2FD10BD10B5044634B1012C08D0B5
:1010D000022C0AD0032C10D10BE00020FFF7B0FD4A
:1010E00018E00120FFF7ACFD14E00220FFF7A8FD97
:1010F00010E00320FFF7A4FD0CE00020FFF7A0FDA7
:101100000120FFF79DFD0220FFF79AFD0320FFF766
:1011100097FD00BF00BF10BD00F0E6F9FFF7B9FF73
:101120002548FFF715FD25A0FFF7C8F8FFF794FD48
:10113000FFF73EFFFFF760FF27A0FFF7BFF82F493B
:101140002FA0FFF7BBF8FFF7EBFD38BB25E0002031
:10115000FFF76AFD0120FFF767FD0220FFF764FD3E
:101160000320FFF761FD2B490C78E11704EB917127
:101170008910A4EB8101C8B2FFF7A5FF25480078CC
:10118000401C2449087008460078042801DB002030
:1011900008704FF4FA70FFF7DDFAD8E70020FFF788
:1011A0004FFD0120FFF74CFD0220FFF749FD032012
:1011B000FFF746FD00BFFEE7003801404932432DEE
:1011C000323443303220636F6E66696775726564CE
:1011D0002E2E2E2E0A0D00000D0A5468652049326D
:1011E0004330206973206861726477617265206999
:1011F0006E7465726661636520000000801A0600E7
:101200000D0A546865207370656564206973202534
:1012100064000000000000202DE9F04F8CB007466C
:1012200000200A904AA090E8004CC068CDE905BEB5
:10123000CDF810A007900FF21C1ADAE9000ACDE9E8
:10124000020A0FF2101ADAE9000ACDE9000A44484E
:101250004068C0F381000B900B9820B1012804D0A6
:1012600002283FD103E03F4A3EE03E4A3CE03C4892
:10127000406800F4803CBCF5803F12D13848C06A19
:1012800000F08048B8F1000F01D1364C00E0364C38
:101290003348406800F40039B9F5003F02D1334CBF
:1012A00000E0324C2E484068C0F383412C4840682F
:1012B00000F0006008B141F010012948406800F0DA
:1012C000804008B141F020010F2901D2891C06E0BD
:1012D0000F2903D33E2901D8491C00E03F2104FB1C
:1012E00001F201E01F4A00BF00BF1D484068C0F383
:1012F000031504A8465D22FA06F319484068C0F3B6
:10130000022502A8465D23FA06F0099014484068B9
:10131000C0F3C2251DF8056023FA06F0089037B126
:10132000012F06D0022F06D0032F0AD106E00A9221
:1013300008E00A9306E009980A9003E008980A90EA
:1013400000E000BF00BF0A980CB0BDE8F08F0000BD
:101350000000000000000000010203040607080965
:101360000010024000127A00006CDC0200093D000F
:10137000064A02EB9011096800F01F0301229A400F
:101380001143024B03EB90121160704700100240B2
:10139000064A02EB9011096800F01F0301229A40EF
:1013A0009143024B03EB9012116070470010024012
:1013B000064A02EB9011096800F01F0301229A40CF
:1013C0001143024B03EB9012116070470010024072
:1013D000002000213E4A126842F480323C4B1A60E1
:1013E00000BF401C3A4A126802F4003111B9B0F54E
:1013F000006FF6D1364A126802F400320AB900BF13
:10140000FEE7334AD26942F08052314BDA61314A09
:10141000126842F440422F4B1A602D4A52682C4BFE
:101420005A601A4652685A601A46526842F48062FC
:101430005A601A46526822F440325A601A4652687C
:1014400042F440325A601A465268234B1A40204BED
:101450005A601A465268214B1A431D4B5A601A466D
:10146000126842F080721A6000BF194A126802F0D6
:101470000072002AF9D0174A126842F48032154BE4
:101480001A6000BF134A526802F48032002AF9D071
:10149000104A126842F400320E4B1A6000BF0D4A27
:1014A000526802F40032002AF9D0094A526822F048
:1014B0000302074B5A601A46526842F002025A6011
:1014C00000BF034A526802F00802002AF9D07047B0
:1014D0000010024000700040FFFFC3B70000340856
:1014E00010B5FFF775FF10BD10B5124800684FF436
:1014F0007A71B0FBF1F4601EB0F1807F01D301205E
:101500000FE0601E4FF0E02148610F214FF0FF30E7
:10151000FEF798FE00204FF0E02188610720086167
:10152000002008B100BFFEE70021481EFEF78AFE3A
:1015300010BD0000080000202DE9F04704460D46CC
:101540000027B946B84600261E49601A8C421CD0B6
:1015500006DC1D48204470B1B0F5806F1FD10FE04C
:10156000B0F5806F16D0B0F56C4F18D10320FFF79F
:1015700053FE074614E00220FFF74EFE07460FE039
:101580000220FFF749FE07460AE00220FFF744FE6B
:10159000074605E00220FFF73FFE074600E000BFD8
:1015A00000BF07EB5500B0FBF5F64FF6F07006EA0A
:1015B000000906F00F08A16849EA08000143A1608C
:1015C000BDE8F087004C004000BCFFBFC1F308023B
:1015D0004260704710B504462049601A8C4228D0FA
:1015E00006DC1F48204490B1B0F5806F33D117E07E
:1015F000B0F5806F26D0B0F56C4F2CD140F20E3094
:10160000FFF7D6FE40F20E30FFF7C2FE24E040F2B4
:101610001140FFF7CDFE40F21140FFF7B9FE1BE08D
:1016200040F21240FFF7C4FE40F21240FFF7B0FE56
:1016300012E040F21340FFF7BBFE40F21340FFF709
:10164000A7FE09E040F21440FFF7B2FE40F214405A
:10165000FFF79EFE00E000BF00BF10BD004C004041
:1016600000BCFFBFC16841F40051C160704710B5B4
:10167000024602EB9110006801F01F040123A34011
:10168000184008B1012010BD0020FCE70A460021E7
:10169000C16821F004011143C16070470A4600216E
:1016A000C16821F008011143C1607047CC160008E1
:1016B0000000002090000000DC0200085C17000819
:1016C0009000002000040000EC0200080000000070
:1016D00000000000000E270700100140001001402C
:1016E0000018014000180140010000000400000043
:1016F00001000000020000000E06110700020000B9
:101700000400000000040000080000000008014080
:101710000008014002060206040604060606060644
:101720000008014000100140000C014001000000D1
:10173000002000000040000002060406030600002E
:101740000100000000200000004000000002010035
:0C1750000D0E062828000000000000001C
:0400000508000131BD
:00000001FF
