:020000040800F2
:1000000090040020490100089F01000897010008A2
:100010009B01000891010008150200080000000083
:10002000000000000000000000000000CB010008FC
:100030009501000800000000C9010008CD0100087A
:100040006301000863010008630100086301000800
:1000500063010008630100086301000863010008F0
:1000600063010008630100086301000863010008E0
:1000700063010008630100086301000863010008D0
:1000800063010008630100086301000863010008C0
:1000900063010008630100086301000863010008B0
:1000A00063010008630100086301000863010008A0
:1000B0006301000863010008630100086301000890
:1000C0006301000863010008630100086301000880
:1000D0006301000863010008630100086301000870
:1000E0006301000863010008630100086301000860
:1000F0006301000863010008630100086301000850
:10010000630100086301000863010008630100083F
:10011000630100086301000863010008630100082F
:10012000630100086301000863010008630100081F
:10013000DFF810D000F01AF800480047DD0600088C
:10014000AFF300809004002006488047064800472F
:10015000FEE7FEE7FEE7FEE7FEE7FEE7FEE7FEE777
:10016000FEE7FEE7D501000831010008064C074D07
:1001700006E0E06840F0010394E807009847103477
:10018000AC42F6D3FFF7D8FFF80C0008180D0008B2
:1001900000BFFEE7704700BFFEE700BFFEE7704705
:1001A00010B5002807DA0A07140E054A00F00F03FD
:1001B0001B1FD45403E00A07130E024A135410BD48
:1001C00018ED00E000E400E07047704710B500F063
:1001D00055F810BD10B50D48006840F001000B49FE
:1001E000086000204860C862084600680849084066
:1001F000064908604FF41F0088600846006820F434
:100200008020086000F092FC10BD00000010024049
:10021000FFFFF6FE00BFFEE7014A024900F013B8F7
:10022000590300088800002002E008C8121F08C116
:10023000002AFAD170477047002001E001C1121F67
:10024000002AFBD170472DE9F04116460F460446BF
:10025000002503E03946B047641C6D1C2078002857
:10026000F8D12846BDE8F0810349086000BF024983
:1002700009680029FBD1704700000020044800688D
:1002800020B103480068401E014908607047000023
:100290000000002010B52C4B1B6883432A4C2360C0
:1002A000231D1B688343241D2360231D1B68834378
:1002B000241D2360231D1B688343241D236011B16B
:1002C00001290ED105E0204B1B6803431E4C23601F
:1002D00008E01D4B1B1D1B6803431B4C241D2360A2
:1002E00000E000BF00BF22B1012A0FD0022A27D1AF
:1002F00019E0154B08331B680343134C0834236083
:10030000231D1B688343241D23601AE00E4B083312
:100310001B6883430C4C08342360231D1B68034374
:10032000241D23600DE0084B08331B680343064C73
:1003300008342360231D1B680343241D236000E051
:1003400000BF00BF10BD000000040140014908606B
:10035000704700001404014070B504460D46E1B238
:10036000054800F059FC00BF0721034800F0A5FC38
:100370000028F9D0204670BD0038014070B5054610
:1003800000241D48854200D103E01C48854200D16D
:1003900001241B4931F8140000F010FB194931F811
:1003A000140000F00BFB184951F82430174951F89C
:1003B00024000322182100F001F9154951F82430D6
:1003C000124951F824000322042100F0F7F82846CE
:1003D00000F026FC4FF4E131284600F0D3FB042165
:1003E000284600F079FC0821284600F07DFC2846CC
:1003F00000F05EFC70BD0000003801400044004089
:1004000044000020280000202C0000203C00002098
:100410003400002070B504460D46174931F8140029
:1004200000F0CCFA4FF4C06000F0C8FA134951F85C
:100430002430134951F824000322042100F0BEF8AF
:10044000012D17D10F49085D0022022100F0B8F9F3
:100450000D4A115D0D4A105D00F064F80C4951F829
:10046000240001220021FFF715FF094951F824005B
:10047000FFF76CFF70BD0000680000205C000020EA
:1004800050000020820000207F0000207C0000201F
:100490007000002010B50446044A52F82410044AA3
:1004A00052F8240000F0DCF810BD00005C000020D1
:1004B0005000002010B504460B4931F8140000F03C
:1004C0007DFA0A4951F82430094951F824000322E1
:1004D000102100F073F8054850F82400044951F841
:1004E0002410486110BD00004800002018000020C2
:1004F00008000020034951F82010034A52F8202038
:10050000516170471800002008000020034951F88D
:100510002010034A52F82020116170471800002073
:100520000800002010B500228B071C0F0F2303FAD0
:1005300004F204290EDA204B9B6893431E4CA360FF
:1005400023469B688C07240F00FA04F423431A4CBB
:10055000A3602FE008290EDA174BDB689343164C93
:10056000E3602346DB688C07240F00FA04F423437E
:10057000114CE3601EE00C290EDA0F4B1B6993430C
:100580000D4C236123461B698C07240F00FA04F4E9
:100590002343094C23610DE0074B5B699343064CF1
:1005A000636123465B698C07240F00FA04F423433C
:1005B000014C636110BD000000000140F0B50C4625
:1005C00016460025002204F00F0504F0100747B17D
:1005D000042E05D145F00305C76B1F43C76300E038
:1005E0003543002118E001278F401F4097B1026872
:1005F0004FEA810C0F2707FA0CF7BA438F0005FA70
:1006000007F73A43282C01D1436102E0482C00D17E
:10061000036102604F1CB9B20829E4D308211CE031
:1006200001278F401F40B7B14268A1F108074FEA88
:10063000870C0F2707FA0CF7BA43A1F10807BF0090
:1006400005FA07F73A43282C01D1436102E0482C10
:1006500000D1036142604F1CB9B21029E0D3F0BD54
:1006600002469068084008B1012070470020FCE76E
:1006700070B50446002520E04FF4C870FFF7F4FD84
:100680000020FFF743FF0120FFF740FF0220FFF7A4
:100690003DFF0320FFF73AFF4FF4C870FFF7E4FD7A
:1006A0000020FFF727FF0120FFF724FF0220FFF7BC
:1006B00021FF0320FFF71EFF6D1CA542DCDB70BD90
:1006C00010B50020FFF7F6FE0120FFF7F3FE022031
:1006D000FFF7F0FE0320FFF7EDFE10BDFFF7F0FF80
:1006E00000F028FA0120FFF7C3FF1F48FFF746FE7E
:1006F00000210120FFF78EFE1CA0FFF78DFD00BF3B
:100700000621194800F0D9FA0028F9D02AE0012082
:10071000FFF7C0FE18BB3220FFF7A6FD0120FFF750
:10072000B9FEC0B93220FFF79FFD0120FFF7B2FEEE
:1007300068B90020FFF7EAFE1AA0FFF76DFD00BFC1
:100740000621094800F0B9FA0028F9D00AE0002093
:10075000FFF7D0FE06E00020FFF7CCFE02E000200D
:10076000FFF7C8FED3E70000003801400D0A20550E
:1007700053415254207072696E7466206578616DC1
:10078000706C653A20706C6561736520707265737A
:1007900073207468652054616D706572206B657993
:1007A000200D0A000D0A20555341525420707269E1
:1007B0006E7466206578616D706C65200D0A0000AE
:1007C000F0B50B46002100240025244E366806F4BF
:1007D000E066B6F5E06F02D100BF042526E01F4EAB
:1007E000366806F4E066B6F5C06F02D10124032531
:1007F0001CE01A4E366806F4E066B6F5A06F02D12A
:100800000224022512E0154E366806F4E066B6F5BD
:10081000806F02D10324012508E0104E366806F4EB
:10082000E066B6F5407F01D104240025C4F104063A
:1008300003FA06F1C5F104070F26FE4016403143C6
:100840000901074E315400F01F070126BE40471131
:10085000BF0007F1E027C7F80061F0BD0CED00E034
:1008600000E400E02DE9F04F8CB0074600200A902C
:100870004AA090E8004CC068CDE905BECDF810A0B4
:1008800007900FF21C1ADAE9000ACDE9020A0FF20A
:10089000101ADAE9000ACDE9000A44484068C0F3BA
:1008A00081000B900B9820B1012804D002283FD181
:1008B00003E03F4A3EE03E4A3CE03C48406800F4EA
:1008C000803CBCF5803F12D13848C06A00F08048B7
:1008D000B8F1000F01D1364C00E0364C3348406887
:1008E00000F40039B9F5003F02D1334C00E0324C3E
:1008F0002E484068C0F383412C48406800F00060F7
:1009000008B141F010012948406800F0804008B16A
:1009100041F020010F2901D2891C06E00F2903D3E1
:100920003E2901D8491C00E03F2104FB01F201E00F
:100930001F4A00BF00BF1D484068C0F3031504A84C
:10094000465D22FA06F319484068C0F3022502A862
:10095000465D23FA06F0099014484068C0F3C225AA
:100960001DF8056023FA06F0089037B1012F06D074
:10097000022F06D0032F0AD106E00A9208E00A935C
:1009800006E009980A9003E008980A9000E000BF8A
:1009900000BF0A980CB0BDE8F08F00000000000016
:1009A00000000000010203040607080900100240CD
:1009B00000127A00006CDC0200093D00064A02EBDE
:1009C0009011096800F01F0301229A401143024B65
:1009D00003EB90121160704700100240064A02EBD0
:1009E0009011096800F01F0301229A409143024BC5
:1009F00003EB90121160704700100240064A02EBB0
:100A00009011096800F01F0301229A401143024B24
:100A100003EB90121160704700100240002000218B
:100A20003E4A126842F480323C4B1A6000BF401CC0
:100A30003A4A126802F4003111B9B0F5006FF6D1EC
:100A4000364A126802F400320AB900BFFEE7334AA0
:100A5000D26942F08052314BDA61314A126842F475
:100A600040422F4B1A602D4A52682C4B5A601A464E
:100A700052685A601A46526842F480625A601A46B6
:100A8000526822F440325A601A46526842F44032A8
:100A90005A601A465268234B1A40204B5A601A4635
:100AA0005268214B1A431D4B5A601A46126842F095
:100AB00080721A6000BF194A126802F00072002AA0
:100AC000F9D0174A126842F48032154B1A6000BF01
:100AD000134A526802F48032002AF9D0104A126890
:100AE00042F400320E4B1A6000BF0D4A526802F405
:100AF0000032002AF9D0094A526822F00302074B5B
:100B00005A601A46526842F002025A6000BF034A15
:100B1000526802F00802002AF9D070470010024023
:100B200000700040FFFFC3B70000340810B5FFF7A6
:100B300075FF10BD10B5124800684FF47A71B0FB14
:100B4000F1F4601EB0F1807F01D301200FE0601E40
:100B50004FF0E02148610F214FF0FF30FFF720FBFD
:100B600000204FF0E021886107200861002008B1D3
:100B700000BFFEE70021481EFFF712FB10BD00007A
:100B8000040000202DE9F04704460D460027B94631
:100B9000B84600261E49601A8C421CD006DC1D484F
:100BA000204470B1B0F5806F1FD10FE0B0F5806FB9
:100BB00016D0B0F56C4F18D10320FFF753FE07464F
:100BC00014E00220FFF74EFE07460FE00220FFF779
:100BD00049FE07460AE00220FFF744FE074605E00B
:100BE0000220FFF73FFE074600E000BF00BF07EB13
:100BF0005500B0FBF5F64FF6F07006EA000906F076
:100C00000F08A16849EA08000143A160BDE8F08728
:100C1000004C004000BCFFBFC1F3080242607047B7
:100C200010B504462049601A8C4228D006DC1F48C3
:100C3000204490B1B0F5806F33D117E0B0F5806FEC
:100C400026D0B0F56C4F2CD140F20E30FFF7D6FE17
:100C500040F20E30FFF7C2FE24E040F21140FFF7F1
:100C6000CDFE40F21140FFF7B9FE1BE040F212400A
:100C7000FFF7C4FE40F21240FFF7B0FE12E040F270
:100C80001340FFF7BBFE40F21340FFF7A7FE09E059
:100C900040F21440FFF7B2FE40F21440FFF79EFE10
:100CA00000E000BF00BF10BD004C004000BCFFBF13
:100CB000C16841F40051C160704710B5024602EBB3
:100CC0009110006801F01F040123A340184008B1EF
:100CD000012010BD0020FCE70A460021C16821F078
:100CE00004011143C16070470A460021C16821F028
:100CF00008011143C1607047180D00080000002072
:100D00008C00000028020008A40D00088C000020C0
:100D1000040400003802000800000000000E27074D
:100D2000001001400010014000180140001801406F
:100D300001000000040000000100000002000000AB
:100D40000E0611070002000004000000000400006D
:100D500008000000000801400008014002060206E9
:100D600004060406060606060008014000100140BD
:100D7000000C0140010000000020000000400000C5
:100D80000206040603060000010000000020000027
:100D900000400000000201000D0E0628280000009F
:040DA000000000004F
:0400000508000131BD
:00000001FF
